{
	"data": {
		"bytecode": {
			"linkReferences": {},
			"object": "60806040526040518060400160405280600281526020016040518060400160405280600781526020017f4172727961616e000000000000000000000000000000000000000000000000008152508152505f80820151815f0155602082015181600101908161006d91906102bb565b50505034801561007b575f80fd5b5061038a565b5f81519050919050565b7f4e487b71000000000000000000000000000000000000000000000000000000005f52604160045260245ffd5b7f4e487b71000000000000000000000000000000000000000000000000000000005f52602260045260245ffd5b5f60028204905060018216806100fc57607f821691505b60208210810361010f5761010e6100b8565b5b50919050565b5f819050815f5260205f209050919050565b5f6020601f8301049050919050565b5f82821b905092915050565b5f600883026101717fffffffffffffffffffffffffffffffffffffffffffffffffffffffffffffffff82610136565b61017b8683610136565b95508019841693508086168417925050509392505050565b5f819050919050565b5f819050919050565b5f6101bf6101ba6101b584610193565b61019c565b610193565b9050919050565b5f819050919050565b6101d8836101a5565b6101ec6101e4826101c6565b848454610142565b825550505050565b5f90565b6102006101f4565b61020b8184846101cf565b505050565b5b8181101561022e576102235f826101f8565b600181019050610211565b5050565b601f8211156102735761024481610115565b61024d84610127565b8101602085101561025c578190505b61027061026885610127565b830182610210565b50505b505050565b5f82821c905092915050565b5f6102935f1984600802610278565b1980831691505092915050565b5f6102ab8383610284565b9150826002028217905092915050565b6102c482610081565b67ffffffffffffffff8111156102dd576102dc61008b565b5b6102e782546100e5565b6102f2828285610232565b5f60209050601f831160018114610323575f8415610311578287015190505b61031b85826102a0565b865550610382565b601f19841661033186610115565b5f5b8281101561035857848901518255600182019150602085019450602081019050610333565b868310156103755784890151610371601f891682610284565b8355505b6001600288020188555050505b505050505050565b610937806103975f395ff3fe608060405234801561000f575f80fd5b506004361061004a575f3560e01c806306c62c2c1461004e5780636f760f411461007e57806377ec2b551461009a5780639e7a13ad146100b9575b5f80fd5b61006860048036038101906100639190610433565b6100ea565b6040516100759190610492565b60405180910390f35b610098600480360381019061009391906104d5565b610117565b005b6100a261019b565b6040516100b092919061058f565b60405180910390f35b6100d360048036038101906100ce91906105bd565b610231565b6040516100e192919061058f565b60405180910390f35b6003818051602081018201805184825260208301602085012081835280955050505050505f915090505481565b6002604051806040016040528083815260200184815250908060018154018082558091505060019003905f5260205f2090600202015f909190919091505f820151815f0155602082015181600101908161017191906107e2565b5050508060038360405161018591906108eb565b9081526020016040518091039020819055505050565b5f805f0154908060010180546101b090610615565b80601f01602080910402602001604051908101604052809291908181526020018280546101dc90610615565b80156102275780601f106101fe57610100808354040283529160200191610227565b820191905f5260205f20905b81548152906001019060200180831161020a57829003601f168201915b5050505050905082565b60028181548110610240575f80fd5b905f5260205f2090600202015f91509050805f01549080600101805461026590610615565b80601f016020809104026020016040519081016040528092919081815260200182805461029190610615565b80156102dc5780601f106102b3576101008083540402835291602001916102dc565b820191905f5260205f20905b8154815290600101906020018083116102bf57829003601f168201915b5050505050905082565b5f604051905090565b5f80fd5b5f80fd5b5f80fd5b5f80fd5b5f601f19601f8301169050919050565b7f4e487b71000000000000000000000000000000000000000000000000000000005f52604160045260245ffd5b610345826102ff565b810181811067ffffffffffffffff821117156103645761036361030f565b5b80604052505050565b5f6103766102e6565b9050610382828261033c565b919050565b5f67ffffffffffffffff8211156103a1576103a061030f565b5b6103aa826102ff565b9050602081019050919050565b828183375f83830152505050565b5f6103d76103d284610387565b61036d565b9050828152602081018484840111156103f3576103f26102fb565b5b6103fe8482856103b7565b509392505050565b5f82601f83011261041a576104196102f7565b5b813561042a8482602086016103c5565b91505092915050565b5f60208284031215610448576104476102ef565b5b5f82013567ffffffffffffffff811115610465576104646102f3565b5b61047184828501610406565b91505092915050565b5f819050919050565b61048c8161047a565b82525050565b5f6020820190506104a55f830184610483565b92915050565b6104b48161047a565b81146104be575f80fd5b50565b5f813590506104cf816104ab565b92915050565b5f80604083850312156104eb576104ea6102ef565b5b5f83013567ffffffffffffffff811115610508576105076102f3565b5b61051485828601610406565b9250506020610525858286016104c1565b9150509250929050565b5f81519050919050565b5f82825260208201905092915050565b8281835e5f83830152505050565b5f6105618261052f565b61056b8185610539565b935061057b818560208601610549565b610584816102ff565b840191505092915050565b5f6040820190506105a25f830185610483565b81810360208301526105b48184610557565b90509392505050565b5f602082840312156105d2576105d16102ef565b5b5f6105df848285016104c1565b91505092915050565b7f4e487b71000000000000000000000000000000000000000000000000000000005f52602260045260245ffd5b5f600282049050600182168061062c57607f821691505b60208210810361063f5761063e6105e8565b5b50919050565b5f819050815f5260205f209050919050565b5f6020601f8301049050919050565b5f82821b905092915050565b5f600883026106a17fffffffffffffffffffffffffffffffffffffffffffffffffffffffffffffffff82610666565b6106ab8683610666565b95508019841693508086168417925050509392505050565b5f819050919050565b5f6106e66106e16106dc8461047a565b6106c3565b61047a565b9050919050565b5f819050919050565b6106ff836106cc565b61071361070b826106ed565b848454610672565b825550505050565b5f90565b61072761071b565b6107328184846106f6565b505050565b5b818110156107555761074a5f8261071f565b600181019050610738565b5050565b601f82111561079a5761076b81610645565b61077484610657565b81016020851015610783578190505b61079761078f85610657565b830182610737565b50505b505050565b5f82821c905092915050565b5f6107ba5f198460080261079f565b1980831691505092915050565b5f6107d283836107ab565b9150826002028217905092915050565b6107eb8261052f565b67ffffffffffffffff8111156108045761080361030f565b5b61080e8254610615565b610819828285610759565b5f60209050601f83116001811461084a575f8415610838578287015190505b61084285826107c7565b8655506108a9565b601f19841661085886610645565b5f5b8281101561087f5784890151825560018201915060208501945060208101905061085a565b8683101561089c5784890151610898601f8916826107ab565b8355505b6001600288020188555050505b505050505050565b5f81905092915050565b5f6108c58261052f565b6108cf81856108b1565b93506108df818560208601610549565b80840191505092915050565b5f6108f682846108bb565b91508190509291505056fea2646970667358221220519caf15e73b23f90cf09e2b007447c612974b000f51ef1a0cd01f6e541dc8b264736f6c634300081a0033",
			"opcodes": "PUSH1 0x80 PUSH1 0x40 MSTORE PUSH1 0x40 MLOAD DUP1 PUSH1 0x40 ADD PUSH1 0x40 MSTORE DUP1 PUSH1 0x2 DUP2 MSTORE PUSH1 0x20 ADD PUSH1 0x40 MLOAD DUP1 PUSH1 0x40 ADD PUSH1 0x40 MSTORE DUP1 PUSH1 0x7 DUP2 MSTORE PUSH1 0x20 ADD PUSH32 0x4172727961616E00000000000000000000000000000000000000000000000000 DUP2 MSTORE POP DUP2 MSTORE POP PUSH0 DUP1 DUP3 ADD MLOAD DUP2 PUSH0 ADD SSTORE PUSH1 0x20 DUP3 ADD MLOAD DUP2 PUSH1 0x1 ADD SWAP1 DUP2 PUSH2 0x6D SWAP2 SWAP1 PUSH2 0x2BB JUMP JUMPDEST POP POP POP CALLVALUE DUP1 ISZERO PUSH2 0x7B JUMPI PUSH0 DUP1 REVERT JUMPDEST POP PUSH2 0x38A JUMP JUMPDEST PUSH0 DUP2 MLOAD SWAP1 POP SWAP2 SWAP1 POP JUMP JUMPDEST PUSH32 0x4E487B7100000000000000000000000000000000000000000000000000000000 PUSH0 MSTORE PUSH1 0x41 PUSH1 0x4 MSTORE PUSH1 0x24 PUSH0 REVERT JUMPDEST PUSH32 0x4E487B7100000000000000000000000000000000000000000000000000000000 PUSH0 MSTORE PUSH1 0x22 PUSH1 0x4 MSTORE PUSH1 0x24 PUSH0 REVERT JUMPDEST PUSH0 PUSH1 0x2 DUP3 DIV SWAP1 POP PUSH1 0x1 DUP3 AND DUP1 PUSH2 0xFC JUMPI PUSH1 0x7F DUP3 AND SWAP2 POP JUMPDEST PUSH1 0x20 DUP3 LT DUP2 SUB PUSH2 0x10F JUMPI PUSH2 0x10E PUSH2 0xB8 JUMP JUMPDEST JUMPDEST POP SWAP2 SWAP1 POP JUMP JUMPDEST PUSH0 DUP2 SWAP1 POP DUP2 PUSH0 MSTORE PUSH1 0x20 PUSH0 KECCAK256 SWAP1 POP SWAP2 SWAP1 POP JUMP JUMPDEST PUSH0 PUSH1 0x20 PUSH1 0x1F DUP4 ADD DIV SWAP1 POP SWAP2 SWAP1 POP JUMP JUMPDEST PUSH0 DUP3 DUP3 SHL SWAP1 POP SWAP3 SWAP2 POP POP JUMP JUMPDEST PUSH0 PUSH1 0x8 DUP4 MUL PUSH2 0x171 PUSH32 0xFFFFFFFFFFFFFFFFFFFFFFFFFFFFFFFFFFFFFFFFFFFFFFFFFFFFFFFFFFFFFFFF DUP3 PUSH2 0x136 JUMP JUMPDEST PUSH2 0x17B DUP7 DUP4 PUSH2 0x136 JUMP JUMPDEST SWAP6 POP DUP1 NOT DUP5 AND SWAP4 POP DUP1 DUP7 AND DUP5 OR SWAP3 POP POP POP SWAP4 SWAP3 POP POP POP JUMP JUMPDEST PUSH0 DUP2 SWAP1 POP SWAP2 SWAP1 POP JUMP JUMPDEST PUSH0 DUP2 SWAP1 POP SWAP2 SWAP1 POP JUMP JUMPDEST PUSH0 PUSH2 0x1BF PUSH2 0x1BA PUSH2 0x1B5 DUP5 PUSH2 0x193 JUMP JUMPDEST PUSH2 0x19C JUMP JUMPDEST PUSH2 0x193 JUMP JUMPDEST SWAP1 POP SWAP2 SWAP1 POP JUMP JUMPDEST PUSH0 DUP2 SWAP1 POP SWAP2 SWAP1 POP JUMP JUMPDEST PUSH2 0x1D8 DUP4 PUSH2 0x1A5 JUMP JUMPDEST PUSH2 0x1EC PUSH2 0x1E4 DUP3 PUSH2 0x1C6 JUMP JUMPDEST DUP5 DUP5 SLOAD PUSH2 0x142 JUMP JUMPDEST DUP3 SSTORE POP POP POP POP JUMP JUMPDEST PUSH0 SWAP1 JUMP JUMPDEST PUSH2 0x200 PUSH2 0x1F4 JUMP JUMPDEST PUSH2 0x20B DUP2 DUP5 DUP5 PUSH2 0x1CF JUMP JUMPDEST POP POP POP JUMP JUMPDEST JUMPDEST DUP2 DUP2 LT ISZERO PUSH2 0x22E JUMPI PUSH2 0x223 PUSH0 DUP3 PUSH2 0x1F8 JUMP JUMPDEST PUSH1 0x1 DUP2 ADD SWAP1 POP PUSH2 0x211 JUMP JUMPDEST POP POP JUMP JUMPDEST PUSH1 0x1F DUP3 GT ISZERO PUSH2 0x273 JUMPI PUSH2 0x244 DUP2 PUSH2 0x115 JUMP JUMPDEST PUSH2 0x24D DUP5 PUSH2 0x127 JUMP JUMPDEST DUP2 ADD PUSH1 0x20 DUP6 LT ISZERO PUSH2 0x25C JUMPI DUP2 SWAP1 POP JUMPDEST PUSH2 0x270 PUSH2 0x268 DUP6 PUSH2 0x127 JUMP JUMPDEST DUP4 ADD DUP3 PUSH2 0x210 JUMP JUMPDEST POP POP JUMPDEST POP POP POP JUMP JUMPDEST PUSH0 DUP3 DUP3 SHR SWAP1 POP SWAP3 SWAP2 POP POP JUMP JUMPDEST PUSH0 PUSH2 0x293 PUSH0 NOT DUP5 PUSH1 0x8 MUL PUSH2 0x278 JUMP JUMPDEST NOT DUP1 DUP4 AND SWAP2 POP POP SWAP3 SWAP2 POP POP JUMP JUMPDEST PUSH0 PUSH2 0x2AB DUP4 DUP4 PUSH2 0x284 JUMP JUMPDEST SWAP2 POP DUP3 PUSH1 0x2 MUL DUP3 OR SWAP1 POP SWAP3 SWAP2 POP POP JUMP JUMPDEST PUSH2 0x2C4 DUP3 PUSH2 0x81 JUMP JUMPDEST PUSH8 0xFFFFFFFFFFFFFFFF DUP2 GT ISZERO PUSH2 0x2DD JUMPI PUSH2 0x2DC PUSH2 0x8B JUMP JUMPDEST JUMPDEST PUSH2 0x2E7 DUP3 SLOAD PUSH2 0xE5 JUMP JUMPDEST PUSH2 0x2F2 DUP3 DUP3 DUP6 PUSH2 0x232 JUMP JUMPDEST PUSH0 PUSH1 0x20 SWAP1 POP PUSH1 0x1F DUP4 GT PUSH1 0x1 DUP2 EQ PUSH2 0x323 JUMPI PUSH0 DUP5 ISZERO PUSH2 0x311 JUMPI DUP3 DUP8 ADD MLOAD SWAP1 POP JUMPDEST PUSH2 0x31B DUP6 DUP3 PUSH2 0x2A0 JUMP JUMPDEST DUP7 SSTORE POP PUSH2 0x382 JUMP JUMPDEST PUSH1 0x1F NOT DUP5 AND PUSH2 0x331 DUP7 PUSH2 0x115 JUMP JUMPDEST PUSH0 JUMPDEST DUP3 DUP2 LT ISZERO PUSH2 0x358 JUMPI DUP5 DUP10 ADD MLOAD DUP3 SSTORE PUSH1 0x1 DUP3 ADD SWAP2 POP PUSH1 0x20 DUP6 ADD SWAP5 POP PUSH1 0x20 DUP2 ADD SWAP1 POP PUSH2 0x333 JUMP JUMPDEST DUP7 DUP4 LT ISZERO PUSH2 0x375 JUMPI DUP5 DUP10 ADD MLOAD PUSH2 0x371 PUSH1 0x1F DUP10 AND DUP3 PUSH2 0x284 JUMP JUMPDEST DUP4 SSTORE POP JUMPDEST PUSH1 0x1 PUSH1 0x2 DUP9 MUL ADD DUP9 SSTORE POP POP POP JUMPDEST POP POP POP POP POP POP JUMP JUMPDEST PUSH2 0x937 DUP1 PUSH2 0x397 PUSH0 CODECOPY PUSH0 RETURN INVALID PUSH1 0x80 PUSH1 0x40 MSTORE CALLVALUE DUP1 ISZERO PUSH2 0xF JUMPI PUSH0 DUP1 REVERT JUMPDEST POP PUSH1 0x4 CALLDATASIZE LT PUSH2 0x4A JUMPI PUSH0 CALLDATALOAD PUSH1 0xE0 SHR DUP1 PUSH4 0x6C62C2C EQ PUSH2 0x4E JUMPI DUP1 PUSH4 0x6F760F41 EQ PUSH2 0x7E JUMPI DUP1 PUSH4 0x77EC2B55 EQ PUSH2 0x9A JUMPI DUP1 PUSH4 0x9E7A13AD EQ PUSH2 0xB9 JUMPI JUMPDEST PUSH0 DUP1 REVERT JUMPDEST PUSH2 0x68 PUSH1 0x4 DUP1 CALLDATASIZE SUB DUP2 ADD SWAP1 PUSH2 0x63 SWAP2 SWAP1 PUSH2 0x433 JUMP JUMPDEST PUSH2 0xEA JUMP JUMPDEST PUSH1 0x40 MLOAD PUSH2 0x75 SWAP2 SWAP1 PUSH2 0x492 JUMP JUMPDEST PUSH1 0x40 MLOAD DUP1 SWAP2 SUB SWAP1 RETURN JUMPDEST PUSH2 0x98 PUSH1 0x4 DUP1 CALLDATASIZE SUB DUP2 ADD SWAP1 PUSH2 0x93 SWAP2 SWAP1 PUSH2 0x4D5 JUMP JUMPDEST PUSH2 0x117 JUMP JUMPDEST STOP JUMPDEST PUSH2 0xA2 PUSH2 0x19B JUMP JUMPDEST PUSH1 0x40 MLOAD PUSH2 0xB0 SWAP3 SWAP2 SWAP1 PUSH2 0x58F JUMP JUMPDEST PUSH1 0x40 MLOAD DUP1 SWAP2 SUB SWAP1 RETURN JUMPDEST PUSH2 0xD3 PUSH1 0x4 DUP1 CALLDATASIZE SUB DUP2 ADD SWAP1 PUSH2 0xCE SWAP2 SWAP1 PUSH2 0x5BD JUMP JUMPDEST PUSH2 0x231 JUMP JUMPDEST PUSH1 0x40 MLOAD PUSH2 0xE1 SWAP3 SWAP2 SWAP1 PUSH2 0x58F JUMP JUMPDEST PUSH1 0x40 MLOAD DUP1 SWAP2 SUB SWAP1 RETURN JUMPDEST PUSH1 0x3 DUP2 DUP1 MLOAD PUSH1 0x20 DUP2 ADD DUP3 ADD DUP1 MLOAD DUP5 DUP3 MSTORE PUSH1 0x20 DUP4 ADD PUSH1 0x20 DUP6 ADD KECCAK256 DUP2 DUP4 MSTORE DUP1 SWAP6 POP POP POP POP POP POP PUSH0 SWAP2 POP SWAP1 POP SLOAD DUP2 JUMP JUMPDEST PUSH1 0x2 PUSH1 0x40 MLOAD DUP1 PUSH1 0x40 ADD PUSH1 0x40 MSTORE DUP1 DUP4 DUP2 MSTORE PUSH1 0x20 ADD DUP5 DUP2 MSTORE POP SWAP1 DUP1 PUSH1 0x1 DUP2 SLOAD ADD DUP1 DUP3 SSTORE DUP1 SWAP2 POP POP PUSH1 0x1 SWAP1 SUB SWAP1 PUSH0 MSTORE PUSH1 0x20 PUSH0 KECCAK256 SWAP1 PUSH1 0x2 MUL ADD PUSH0 SWAP1 SWAP2 SWAP1 SWAP2 SWAP1 SWAP2 POP PUSH0 DUP3 ADD MLOAD DUP2 PUSH0 ADD SSTORE PUSH1 0x20 DUP3 ADD MLOAD DUP2 PUSH1 0x1 ADD SWAP1 DUP2 PUSH2 0x171 SWAP2 SWAP1 PUSH2 0x7E2 JUMP JUMPDEST POP POP POP DUP1 PUSH1 0x3 DUP4 PUSH1 0x40 MLOAD PUSH2 0x185 SWAP2 SWAP1 PUSH2 0x8EB JUMP JUMPDEST SWAP1 DUP2 MSTORE PUSH1 0x20 ADD PUSH1 0x40 MLOAD DUP1 SWAP2 SUB SWAP1 KECCAK256 DUP2 SWAP1 SSTORE POP POP POP JUMP JUMPDEST PUSH0 DUP1 PUSH0 ADD SLOAD SWAP1 DUP1 PUSH1 0x1 ADD DUP1 SLOAD PUSH2 0x1B0 SWAP1 PUSH2 0x615 JUMP JUMPDEST DUP1 PUSH1 0x1F ADD PUSH1 0x20 DUP1 SWAP2 DIV MUL PUSH1 0x20 ADD PUSH1 0x40 MLOAD SWAP1 DUP2 ADD PUSH1 0x40 MSTORE DUP1 SWAP3 SWAP2 SWAP1 DUP2 DUP2 MSTORE PUSH1 0x20 ADD DUP3 DUP1 SLOAD PUSH2 0x1DC SWAP1 PUSH2 0x615 JUMP JUMPDEST DUP1 ISZERO PUSH2 0x227 JUMPI DUP1 PUSH1 0x1F LT PUSH2 0x1FE JUMPI PUSH2 0x100 DUP1 DUP4 SLOAD DIV MUL DUP4 MSTORE SWAP2 PUSH1 0x20 ADD SWAP2 PUSH2 0x227 JUMP JUMPDEST DUP3 ADD SWAP2 SWAP1 PUSH0 MSTORE PUSH1 0x20 PUSH0 KECCAK256 SWAP1 JUMPDEST DUP2 SLOAD DUP2 MSTORE SWAP1 PUSH1 0x1 ADD SWAP1 PUSH1 0x20 ADD DUP1 DUP4 GT PUSH2 0x20A JUMPI DUP3 SWAP1 SUB PUSH1 0x1F AND DUP3 ADD SWAP2 JUMPDEST POP POP POP POP POP SWAP1 POP DUP3 JUMP JUMPDEST PUSH1 0x2 DUP2 DUP2 SLOAD DUP2 LT PUSH2 0x240 JUMPI PUSH0 DUP1 REVERT JUMPDEST SWAP1 PUSH0 MSTORE PUSH1 0x20 PUSH0 KECCAK256 SWAP1 PUSH1 0x2 MUL ADD PUSH0 SWAP2 POP SWAP1 POP DUP1 PUSH0 ADD SLOAD SWAP1 DUP1 PUSH1 0x1 ADD DUP1 SLOAD PUSH2 0x265 SWAP1 PUSH2 0x615 JUMP JUMPDEST DUP1 PUSH1 0x1F ADD PUSH1 0x20 DUP1 SWAP2 DIV MUL PUSH1 0x20 ADD PUSH1 0x40 MLOAD SWAP1 DUP2 ADD PUSH1 0x40 MSTORE DUP1 SWAP3 SWAP2 SWAP1 DUP2 DUP2 MSTORE PUSH1 0x20 ADD DUP3 DUP1 SLOAD PUSH2 0x291 SWAP1 PUSH2 0x615 JUMP JUMPDEST DUP1 ISZERO PUSH2 0x2DC JUMPI DUP1 PUSH1 0x1F LT PUSH2 0x2B3 JUMPI PUSH2 0x100 DUP1 DUP4 SLOAD DIV MUL DUP4 MSTORE SWAP2 PUSH1 0x20 ADD SWAP2 PUSH2 0x2DC JUMP JUMPDEST DUP3 ADD SWAP2 SWAP1 PUSH0 MSTORE PUSH1 0x20 PUSH0 KECCAK256 SWAP1 JUMPDEST DUP2 SLOAD DUP2 MSTORE SWAP1 PUSH1 0x1 ADD SWAP1 PUSH1 0x20 ADD DUP1 DUP4 GT PUSH2 0x2BF JUMPI DUP3 SWAP1 SUB PUSH1 0x1F AND DUP3 ADD SWAP2 JUMPDEST POP POP POP POP POP SWAP1 POP DUP3 JUMP JUMPDEST PUSH0 PUSH1 0x40 MLOAD SWAP1 POP SWAP1 JUMP JUMPDEST PUSH0 DUP1 REVERT JUMPDEST PUSH0 DUP1 REVERT JUMPDEST PUSH0 DUP1 REVERT JUMPDEST PUSH0 DUP1 REVERT JUMPDEST PUSH0 PUSH1 0x1F NOT PUSH1 0x1F DUP4 ADD AND SWAP1 POP SWAP2 SWAP1 POP JUMP JUMPDEST PUSH32 0x4E487B7100000000000000000000000000000000000000000000000000000000 PUSH0 MSTORE PUSH1 0x41 PUSH1 0x4 MSTORE PUSH1 0x24 PUSH0 REVERT JUMPDEST PUSH2 0x345 DUP3 PUSH2 0x2FF JUMP JUMPDEST DUP2 ADD DUP2 DUP2 LT PUSH8 0xFFFFFFFFFFFFFFFF DUP3 GT OR ISZERO PUSH2 0x364 JUMPI PUSH2 0x363 PUSH2 0x30F JUMP JUMPDEST JUMPDEST DUP1 PUSH1 0x40 MSTORE POP POP POP JUMP JUMPDEST PUSH0 PUSH2 0x376 PUSH2 0x2E6 JUMP JUMPDEST SWAP1 POP PUSH2 0x382 DUP3 DUP3 PUSH2 0x33C JUMP JUMPDEST SWAP2 SWAP1 POP JUMP JUMPDEST PUSH0 PUSH8 0xFFFFFFFFFFFFFFFF DUP3 GT ISZERO PUSH2 0x3A1 JUMPI PUSH2 0x3A0 PUSH2 0x30F JUMP JUMPDEST JUMPDEST PUSH2 0x3AA DUP3 PUSH2 0x2FF JUMP JUMPDEST SWAP1 POP PUSH1 0x20 DUP2 ADD SWAP1 POP SWAP2 SWAP1 POP JUMP JUMPDEST DUP3 DUP2 DUP4 CALLDATACOPY PUSH0 DUP4 DUP4 ADD MSTORE POP POP POP JUMP JUMPDEST PUSH0 PUSH2 0x3D7 PUSH2 0x3D2 DUP5 PUSH2 0x387 JUMP JUMPDEST PUSH2 0x36D JUMP JUMPDEST SWAP1 POP DUP3 DUP2 MSTORE PUSH1 0x20 DUP2 ADD DUP5 DUP5 DUP5 ADD GT ISZERO PUSH2 0x3F3 JUMPI PUSH2 0x3F2 PUSH2 0x2FB JUMP JUMPDEST JUMPDEST PUSH2 0x3FE DUP5 DUP3 DUP6 PUSH2 0x3B7 JUMP JUMPDEST POP SWAP4 SWAP3 POP POP POP JUMP JUMPDEST PUSH0 DUP3 PUSH1 0x1F DUP4 ADD SLT PUSH2 0x41A JUMPI PUSH2 0x419 PUSH2 0x2F7 JUMP JUMPDEST JUMPDEST DUP2 CALLDATALOAD PUSH2 0x42A DUP5 DUP3 PUSH1 0x20 DUP7 ADD PUSH2 0x3C5 JUMP JUMPDEST SWAP2 POP POP SWAP3 SWAP2 POP POP JUMP JUMPDEST PUSH0 PUSH1 0x20 DUP3 DUP5 SUB SLT ISZERO PUSH2 0x448 JUMPI PUSH2 0x447 PUSH2 0x2EF JUMP JUMPDEST JUMPDEST PUSH0 DUP3 ADD CALLDATALOAD PUSH8 0xFFFFFFFFFFFFFFFF DUP2 GT ISZERO PUSH2 0x465 JUMPI PUSH2 0x464 PUSH2 0x2F3 JUMP JUMPDEST JUMPDEST PUSH2 0x471 DUP5 DUP3 DUP6 ADD PUSH2 0x406 JUMP JUMPDEST SWAP2 POP POP SWAP3 SWAP2 POP POP JUMP JUMPDEST PUSH0 DUP2 SWAP1 POP SWAP2 SWAP1 POP JUMP JUMPDEST PUSH2 0x48C DUP2 PUSH2 0x47A JUMP JUMPDEST DUP3 MSTORE POP POP JUMP JUMPDEST PUSH0 PUSH1 0x20 DUP3 ADD SWAP1 POP PUSH2 0x4A5 PUSH0 DUP4 ADD DUP5 PUSH2 0x483 JUMP JUMPDEST SWAP3 SWAP2 POP POP JUMP JUMPDEST PUSH2 0x4B4 DUP2 PUSH2 0x47A JUMP JUMPDEST DUP2 EQ PUSH2 0x4BE JUMPI PUSH0 DUP1 REVERT JUMPDEST POP JUMP JUMPDEST PUSH0 DUP2 CALLDATALOAD SWAP1 POP PUSH2 0x4CF DUP2 PUSH2 0x4AB JUMP JUMPDEST SWAP3 SWAP2 POP POP JUMP JUMPDEST PUSH0 DUP1 PUSH1 0x40 DUP4 DUP6 SUB SLT ISZERO PUSH2 0x4EB JUMPI PUSH2 0x4EA PUSH2 0x2EF JUMP JUMPDEST JUMPDEST PUSH0 DUP4 ADD CALLDATALOAD PUSH8 0xFFFFFFFFFFFFFFFF DUP2 GT ISZERO PUSH2 0x508 JUMPI PUSH2 0x507 PUSH2 0x2F3 JUMP JUMPDEST JUMPDEST PUSH2 0x514 DUP6 DUP3 DUP7 ADD PUSH2 0x406 JUMP JUMPDEST SWAP3 POP POP PUSH1 0x20 PUSH2 0x525 DUP6 DUP3 DUP7 ADD PUSH2 0x4C1 JUMP JUMPDEST SWAP2 POP POP SWAP3 POP SWAP3 SWAP1 POP JUMP JUMPDEST PUSH0 DUP2 MLOAD SWAP1 POP SWAP2 SWAP1 POP JUMP JUMPDEST PUSH0 DUP3 DUP3 MSTORE PUSH1 0x20 DUP3 ADD SWAP1 POP SWAP3 SWAP2 POP POP JUMP JUMPDEST DUP3 DUP2 DUP4 MCOPY PUSH0 DUP4 DUP4 ADD MSTORE POP POP POP JUMP JUMPDEST PUSH0 PUSH2 0x561 DUP3 PUSH2 0x52F JUMP JUMPDEST PUSH2 0x56B DUP2 DUP6 PUSH2 0x539 JUMP JUMPDEST SWAP4 POP PUSH2 0x57B DUP2 DUP6 PUSH1 0x20 DUP7 ADD PUSH2 0x549 JUMP JUMPDEST PUSH2 0x584 DUP2 PUSH2 0x2FF JUMP JUMPDEST DUP5 ADD SWAP2 POP POP SWAP3 SWAP2 POP POP JUMP JUMPDEST PUSH0 PUSH1 0x40 DUP3 ADD SWAP1 POP PUSH2 0x5A2 PUSH0 DUP4 ADD DUP6 PUSH2 0x483 JUMP JUMPDEST DUP2 DUP2 SUB PUSH1 0x20 DUP4 ADD MSTORE PUSH2 0x5B4 DUP2 DUP5 PUSH2 0x557 JUMP JUMPDEST SWAP1 POP SWAP4 SWAP3 POP POP POP JUMP JUMPDEST PUSH0 PUSH1 0x20 DUP3 DUP5 SUB SLT ISZERO PUSH2 0x5D2 JUMPI PUSH2 0x5D1 PUSH2 0x2EF JUMP JUMPDEST JUMPDEST PUSH0 PUSH2 0x5DF DUP5 DUP3 DUP6 ADD PUSH2 0x4C1 JUMP JUMPDEST SWAP2 POP POP SWAP3 SWAP2 POP POP JUMP JUMPDEST PUSH32 0x4E487B7100000000000000000000000000000000000000000000000000000000 PUSH0 MSTORE PUSH1 0x22 PUSH1 0x4 MSTORE PUSH1 0x24 PUSH0 REVERT JUMPDEST PUSH0 PUSH1 0x2 DUP3 DIV SWAP1 POP PUSH1 0x1 DUP3 AND DUP1 PUSH2 0x62C JUMPI PUSH1 0x7F DUP3 AND SWAP2 POP JUMPDEST PUSH1 0x20 DUP3 LT DUP2 SUB PUSH2 0x63F JUMPI PUSH2 0x63E PUSH2 0x5E8 JUMP JUMPDEST JUMPDEST POP SWAP2 SWAP1 POP JUMP JUMPDEST PUSH0 DUP2 SWAP1 POP DUP2 PUSH0 MSTORE PUSH1 0x20 PUSH0 KECCAK256 SWAP1 POP SWAP2 SWAP1 POP JUMP JUMPDEST PUSH0 PUSH1 0x20 PUSH1 0x1F DUP4 ADD DIV SWAP1 POP SWAP2 SWAP1 POP JUMP JUMPDEST PUSH0 DUP3 DUP3 SHL SWAP1 POP SWAP3 SWAP2 POP POP JUMP JUMPDEST PUSH0 PUSH1 0x8 DUP4 MUL PUSH2 0x6A1 PUSH32 0xFFFFFFFFFFFFFFFFFFFFFFFFFFFFFFFFFFFFFFFFFFFFFFFFFFFFFFFFFFFFFFFF DUP3 PUSH2 0x666 JUMP JUMPDEST PUSH2 0x6AB DUP7 DUP4 PUSH2 0x666 JUMP JUMPDEST SWAP6 POP DUP1 NOT DUP5 AND SWAP4 POP DUP1 DUP7 AND DUP5 OR SWAP3 POP POP POP SWAP4 SWAP3 POP POP POP JUMP JUMPDEST PUSH0 DUP2 SWAP1 POP SWAP2 SWAP1 POP JUMP JUMPDEST PUSH0 PUSH2 0x6E6 PUSH2 0x6E1 PUSH2 0x6DC DUP5 PUSH2 0x47A JUMP JUMPDEST PUSH2 0x6C3 JUMP JUMPDEST PUSH2 0x47A JUMP JUMPDEST SWAP1 POP SWAP2 SWAP1 POP JUMP JUMPDEST PUSH0 DUP2 SWAP1 POP SWAP2 SWAP1 POP JUMP JUMPDEST PUSH2 0x6FF DUP4 PUSH2 0x6CC JUMP JUMPDEST PUSH2 0x713 PUSH2 0x70B DUP3 PUSH2 0x6ED JUMP JUMPDEST DUP5 DUP5 SLOAD PUSH2 0x672 JUMP JUMPDEST DUP3 SSTORE POP POP POP POP JUMP JUMPDEST PUSH0 SWAP1 JUMP JUMPDEST PUSH2 0x727 PUSH2 0x71B JUMP JUMPDEST PUSH2 0x732 DUP2 DUP5 DUP5 PUSH2 0x6F6 JUMP JUMPDEST POP POP POP JUMP JUMPDEST JUMPDEST DUP2 DUP2 LT ISZERO PUSH2 0x755 JUMPI PUSH2 0x74A PUSH0 DUP3 PUSH2 0x71F JUMP JUMPDEST PUSH1 0x1 DUP2 ADD SWAP1 POP PUSH2 0x738 JUMP JUMPDEST POP POP JUMP JUMPDEST PUSH1 0x1F DUP3 GT ISZERO PUSH2 0x79A JUMPI PUSH2 0x76B DUP2 PUSH2 0x645 JUMP JUMPDEST PUSH2 0x774 DUP5 PUSH2 0x657 JUMP JUMPDEST DUP2 ADD PUSH1 0x20 DUP6 LT ISZERO PUSH2 0x783 JUMPI DUP2 SWAP1 POP JUMPDEST PUSH2 0x797 PUSH2 0x78F DUP6 PUSH2 0x657 JUMP JUMPDEST DUP4 ADD DUP3 PUSH2 0x737 JUMP JUMPDEST POP POP JUMPDEST POP POP POP JUMP JUMPDEST PUSH0 DUP3 DUP3 SHR SWAP1 POP SWAP3 SWAP2 POP POP JUMP JUMPDEST PUSH0 PUSH2 0x7BA PUSH0 NOT DUP5 PUSH1 0x8 MUL PUSH2 0x79F JUMP JUMPDEST NOT DUP1 DUP4 AND SWAP2 POP POP SWAP3 SWAP2 POP POP JUMP JUMPDEST PUSH0 PUSH2 0x7D2 DUP4 DUP4 PUSH2 0x7AB JUMP JUMPDEST SWAP2 POP DUP3 PUSH1 0x2 MUL DUP3 OR SWAP1 POP SWAP3 SWAP2 POP POP JUMP JUMPDEST PUSH2 0x7EB DUP3 PUSH2 0x52F JUMP JUMPDEST PUSH8 0xFFFFFFFFFFFFFFFF DUP2 GT ISZERO PUSH2 0x804 JUMPI PUSH2 0x803 PUSH2 0x30F JUMP JUMPDEST JUMPDEST PUSH2 0x80E DUP3 SLOAD PUSH2 0x615 JUMP JUMPDEST PUSH2 0x819 DUP3 DUP3 DUP6 PUSH2 0x759 JUMP JUMPDEST PUSH0 PUSH1 0x20 SWAP1 POP PUSH1 0x1F DUP4 GT PUSH1 0x1 DUP2 EQ PUSH2 0x84A JUMPI PUSH0 DUP5 ISZERO PUSH2 0x838 JUMPI DUP3 DUP8 ADD MLOAD SWAP1 POP JUMPDEST PUSH2 0x842 DUP6 DUP3 PUSH2 0x7C7 JUMP JUMPDEST DUP7 SSTORE POP PUSH2 0x8A9 JUMP JUMPDEST PUSH1 0x1F NOT DUP5 AND PUSH2 0x858 DUP7 PUSH2 0x645 JUMP JUMPDEST PUSH0 JUMPDEST DUP3 DUP2 LT ISZERO PUSH2 0x87F JUMPI DUP5 DUP10 ADD MLOAD DUP3 SSTORE PUSH1 0x1 DUP3 ADD SWAP2 POP PUSH1 0x20 DUP6 ADD SWAP5 POP PUSH1 0x20 DUP2 ADD SWAP1 POP PUSH2 0x85A JUMP JUMPDEST DUP7 DUP4 LT ISZERO PUSH2 0x89C JUMPI DUP5 DUP10 ADD MLOAD PUSH2 0x898 PUSH1 0x1F DUP10 AND DUP3 PUSH2 0x7AB JUMP JUMPDEST DUP4 SSTORE POP JUMPDEST PUSH1 0x1 PUSH1 0x2 DUP9 MUL ADD DUP9 SSTORE POP POP POP JUMPDEST POP POP POP POP POP POP JUMP JUMPDEST PUSH0 DUP2 SWAP1 POP SWAP3 SWAP2 POP POP JUMP JUMPDEST PUSH0 PUSH2 0x8C5 DUP3 PUSH2 0x52F JUMP JUMPDEST PUSH2 0x8CF DUP2 DUP6 PUSH2 0x8B1 JUMP JUMPDEST SWAP4 POP PUSH2 0x8DF DUP2 DUP6 PUSH1 0x20 DUP7 ADD PUSH2 0x549 JUMP JUMPDEST DUP1 DUP5 ADD SWAP2 POP POP SWAP3 SWAP2 POP POP JUMP JUMPDEST PUSH0 PUSH2 0x8F6 DUP3 DUP5 PUSH2 0x8BB JUMP JUMPDEST SWAP2 POP DUP2 SWAP1 POP SWAP3 SWAP2 POP POP JUMP INVALID LOG2 PUSH5 0x6970667358 0x22 SLT KECCAK256 MLOAD SWAP13 0xAF ISZERO 0xE7 EXTCODESIZE 0x23 0xF9 0xC CREATE SWAP15 0x2B STOP PUSH21 0x47C612974B000F51EF1A0CD01F6E541DC8B264736F PUSH13 0x634300081A0033000000000000 "
		},
		"gasEstimates": {
			"creation": {
				"codeDepositCost": "471800",
				"executionCost": "infinite",
				"totalCost": "infinite"
			},
			"external": {
				"addPerson(string,uint256)": "infinite",
				"nameToFavNum(string)": "infinite",
				"people(uint256)": "infinite",
				"person()": "infinite"
			}
		},
		"methodIdentifiers": {
			"addPerson(string,uint256)": "6f760f41",
			"nameToFavNum(string)": "06c62c2c",
			"people(uint256)": "9e7a13ad",
			"person()": "77ec2b55"
		}
	},
	"abi": [
		{
			"inputs": [
				{
					"internalType": "string",
					"name": "_name",
					"type": "string"
				},
				{
					"internalType": "uint256",
					"name": "_favNum",
					"type": "uint256"
				}
			],
			"name": "addPerson",
			"outputs": [],
			"stateMutability": "nonpayable",
			"type": "function"
		},
		{
			"inputs": [
				{
					"internalType": "string",
					"name": "",
					"type": "string"
				}
			],
			"name": "nameToFavNum",
			"outputs": [
				{
					"internalType": "uint256",
					"name": "",
					"type": "uint256"
				}
			],
			"stateMutability": "view",
			"type": "function"
		},
		{
			"inputs": [
				{
					"internalType": "uint256",
					"name": "",
					"type": "uint256"
				}
			],
			"name": "people",
			"outputs": [
				{
					"internalType": "uint256",
					"name": "favNum",
					"type": "uint256"
				},
				{
					"internalType": "string",
					"name": "name",
					"type": "string"
				}
			],
			"stateMutability": "view",
			"type": "function"
		},
		{
			"inputs": [],
			"name": "person",
			"outputs": [
				{
					"internalType": "uint256",
					"name": "favNum",
					"type": "uint256"
				},
				{
					"internalType": "string",
					"name": "name",
					"type": "string"
				}
			],
			"stateMutability": "view",
			"type": "function"
		}
	]
}